{
  "contractName": "Placeth",
  "abi": [
    {
      "constant": false,
      "inputs": [
        {
          "name": "x",
          "type": "uint256"
        },
        {
          "name": "y",
          "type": "uint256"
        },
        {
          "name": "color",
          "type": "uint256"
        }
      ],
      "name": "fill",
      "outputs": [],
      "payable": false,
      "stateMutability": "nonpayable",
      "type": "function"
    },
    {
      "inputs": [
        {
          "name": "xB",
          "type": "uint256"
        },
        {
          "name": "yB",
          "type": "uint256"
        }
      ],
      "payable": false,
      "stateMutability": "nonpayable",
      "type": "constructor"
    },
    {
      "anonymous": false,
      "inputs": [
        {
          "indexed": false,
          "name": "x",
          "type": "uint256"
        },
        {
          "indexed": false,
          "name": "y",
          "type": "uint256"
        },
        {
          "indexed": false,
          "name": "color",
          "type": "uint256"
        }
      ],
      "name": "Commit",
      "type": "event"
    }
  ],
  "bytecode": "0x6060604052341561000f57600080fd5b60405160408061023983398101604052808051906020019091908051906020019091905050816000819055508060018190555050506101e6806100536000396000f300606060405260043610610041576000357c0100000000000000000000000000000000000000000000000000000000900463ffffffff1680636fe4a44814610046575b600080fd5b341561005157600080fd5b610079600480803590602001909190803590602001909190803590602001909190505061007b565b005b806000811015801561008e5750600f8111155b151561009957600080fd5b838360005482111580156100ae575060008210155b15156100b957600080fd5b60015481111580156100cc575060008110155b15156100d757600080fd5b6014600260003373ffffffffffffffffffffffffffffffffffffffff1673ffffffffffffffffffffffffffffffffffffffff16815260200190815260200160002054014311151561012757600080fd5b7f7cb363f1be918dc2e8cadae9eb87766dacf1f4f49ae904291aa3e59fc593c41386868660405180848152602001838152602001828152602001935050505060405180910390a143600260003373ffffffffffffffffffffffffffffffffffffffff1673ffffffffffffffffffffffffffffffffffffffff168152602001908152602001600020819055505050505050505600a165627a7a7230582008c78ab752cdaddd6a02e2d1dc14959bc6c3c530285a40da4f00756d922d1a010029",
  "source": "pragma solidity ^0.4.18;\n\n\ncontract Placeth {\n    uint private xBounds;\n    uint private yBounds;\n    mapping(address => uint) lastSent;\n\n    event Commit(uint x, uint y, uint color);\n\n    function Placeth (uint xB, uint yB) public {\n        xBounds = xB;\n        yBounds = yB;\n    }\n\n    modifier hasValidBounds (uint x, uint y) {\n        require(x <= xBounds && x >= 0);\n        require(y <= yBounds && y >= 0);\n        _;\n    }\n\n    modifier hasValidColor(uint color) {\n        require(color >= 0 && color <= 15);\n        _;\n    }\n\n    modifier allowedToPlay {\n        require(block.number > lastSent[msg.sender] + 20);\n        _;\n    }\n\n    function fill (uint x, uint y, uint color) public hasValidColor(color) hasValidBounds(x, y) allowedToPlay {\n        Commit(x, y, color);\n        lastSent[msg.sender] = block.number;\n    }\n}\n",
  "sourcePath": "/Users/root1/workspace/placeth/contracts/Placeth.sol",
  "compiler": {
    "name": "solc",
    "version": "0.4.18+commit.9cf6e910.Emscripten.clang"
  },
  "schemaVersion": "1.0.1",
  "updatedAt": "2018-02-18T06:07:57.695Z"
}